:100000000C9463000C94860A0C94B30A0C948B0035
:100010000C948B000C948B000C948B000C948B0034
:100020000C948B000C948B000C948B000C9485101A
:100030000C948B000C948B000C948B000C948B0014
:100040000C94E00A0C948B000C94030E0C943F0E5D
:100050000C948B000C948B000C948B000C948B00F4
:100060000C948B000C948B00000000070002010030
:100070000003040600000000000000000102040864
:100080001020408001020408102001020408102002
:10009000040404040404040402020202020203032E
:1000A00003030303000000002300260029000000D2
:1000B0000000250028002B0000000000240027007D
:1000C0002A00DB04060F11241FBECFEFD8E0DEBFED
:1000D000CDBF12E0A0E0B1E0EEE0F0E302C0059099
:1000E0000D92AA31B107D9F723E0AAE1B2E001C02D
:1000F0001D92AD3BB207E1F710E0C6ECD0E004C0C2
:100100002297FE010E94FB14C23CD107C9F70E944E
:1001100078100C9405180C94000040E052EC61E05B
:1001200070E080EF92E00C94860E0E94FF14892B01
:1001300029F4109248026DE071E005C081E08093DF
:10014000480265E171E080EF92E00C94AB0F1F93E1
:10015000CF93DF93EC011881812F8F7D813461F47F
:10016000E981E053E630D0F4F0E0ED5FFD4F8081AF
:10017000992787FD909514C0CE010E94FF14009727
:1001800079F4103359F481E090E02981203311F49F
:1001900080E090E091958195910902C08FEF9FEFEB
:1001A000DF91CF911F9108950F931F93CF93DF930A
:1001B000EC018B0180914802882331F06BE171E002
:1001C00080EF92E00E94AB0FCE010E94A700EC01ED
:1001D000CF3F8FEFD80771F4809148028823C9F090
:1001E0006EE171E080EF92E0DF91CF911F910F916E
:1001F0000C94AB0FC8010E94FF14892B11F461E02D
:1002000001C060E08C2FDF91CF911F910F910C9472
:100210005E0CDF91CF911F910F9108950F931F9363
:10022000CF93DF93EC018B0180914802882331F05A
:1002300065E271E080EF92E00E94AB0FCE010E9478
:10024000A700EC01CF3F8FEFD80771F480914802EF
:100250008823E9F06EE171E080EF92E0DF91CF91C9
:100260001F910F910C94AB0F61E08C2F0E945E0CDC
:10027000C8010E94FF14892B11F460E001C061E005
:100280008C2FDF91CF911F910F910C947E0CDF91F9
:10029000CF911F910F9108950F931F93CF93DF93E9
:1002A000CDB7DEB727970FB6F894DEBF0FBECDBF30
:1002B0008C0180914802882331F068E271E080EF80
:1002C00092E00E94AB0FC8010E94A7008C010F3F73
:1002D0008FEF180759F480914802882339F16EE1B5
:1002E00071E080EF92E00E94AB0F20C060E0802FB1
:1002F0000E945E0C802F0E94B40C9F938F931F93DB
:100300000F938BE291E09F938F938E010F5F1F4FAE
:100310001F930F930E943415B80180EF92E00E9462
:10032000AB0F0FB6F894DEBF0FBECDBF27960FB64A
:10033000F894DEBF0FBECDBFDF91CF911F910F911B
:100340000895EF92FF920F931F93CF93DF93CDB752
:10035000DEB728970FB6F894DEBF0FBECDBFF82EDC
:10036000E92E80914802882331F066E371E080EF46
:1003700092E00E94AB0F8F2D9E2D0E94A7008C0152
:100380000F3F8FEF180759F480914802882339F105
:100390006EE171E080EF92E00E94AB0F20C060E060
:1003A000802F0E945E0C802F0E94B90B9F938F9329
:1003B000EF92FF9289E391E09F938F938E010F5FFD
:1003C0001F4F1F930F930E943415B80180EF92E0E6
:1003D0000E94AB0F0FB6F894DEBF0FBECDBF2896BC
:1003E0000FB6F894DEBF0FBECDBFDF91CF911F9146
:1003F0000F91FF90EF9008950F931F93CF93DF938A
:10040000EC018B0180914802882331F062E471E0B5
:1004100080EF92E00E94AB0FCE010E94A700EC019A
:1004200061E00E945E0CCF3F8FEFD80771F480919E
:1004300048028823A9F06EE171E080EF92E0DF913D
:10044000CF911F910F910C94AB0FC8010E94FF1424
:10045000BC018C2FDF91CF911F910F910C94D60B83
:10046000DF91CF911F910F910895CF92DF92EF927C
:10047000FF920F931F93CF93DF93CDB7DEB76097B3
:100480000FB6F894DEBF0FBECDBFD82EC92E7B01AC
:1004900080914802882331F065E471E080EF92E0BA
:1004A0000E94AB0F8D2D9C2D0E94A7008C010F3F49
:1004B0008FEF180761F480914802882309F45EC029
:1004C0006EE171E080EF92E00E94AB0F57C068E4EC
:1004D00071E080EF92E00E94AB0FC7010E94FF1411
:1004E000019709F04BC061E0802F0E945E0C60E034
:1004F000802F0E947E0C82E090E00E94730B61E0EE
:10050000802F0E947E0C85E090E00E94730B60E0DB
:10051000802F0E947E0C63E571E080EF92E00E94E4
:10052000AB0F60E0802F0E945E0C20E432E44FE0CD
:1005300050E061E0802F0E94DD0C9F938F937F93AA
:100540006F93CF92DF928EE591E09F938F938E0110
:100550000F5F1F4F1F930F930E943415B80180EF58
:1005600092E00E94AB0F62E370E080E090E00E94B6
:100570004D0B0FB6F894DEBF0FBECDBF60960FB621
:10058000F894DEBF0FBECDBFDF91CF911F910F91C9
:10059000FF90EF90DF90CF900895AF92BF92CF92EF
:1005A000DF92EF92FF920F931F93CF93DF93CDB71C
:1005B000DEB72D970FB6F894DEBF0FBECDBFB82EB5
:1005C000A92E6B018A0180914802882331F065E4ED
:1005D00071E080EF92E00E94AB0F8B2D9A2D0E946C
:1005E000A7007C018FEFE816F80661F480914802BD
:1005F000882309F483C06EE171E080EF92E00E94ED
:10060000AB0F7CC06EE671E080EF92E00E94AB0F12
:10061000C6010E94FF14009749F48AE192E00E940B
:10062000E011AF92BF928CE791E00CC08130910550
:10063000F1F4B7018AE192E00E94DA11AF92BF9221
:1006400089E891E09F938F938E010F5F1F4F1F9357
:100650000F930E943415B80180EF92E00E94AB0F17
:100660000F900F900F900F900F900F9047C0823017
:100670009105F9F466E971E080EF92E00E94AB0F1A
:10068000C8010E94FF144AE050E0BC0180EF92E0F4
:100690000E946010C8010E94FF14BC018AE192E030
:1006A0000E9421126FE070E080E090E00E944D0B0C
:1006B00025C0039719F567EA71E080EF92E00E9488
:1006C000AB0F8AE192E00E94A3129F938F93AF92A7
:1006D000BF9285EB91E09F938F938E010F5F1F4F29
:1006E0001F930F930E943415B80180EF92E00E948F
:1006F000AB0F0FB6F894DEBF0FBECDBF2D960FB671
:10070000F894DEBF0FBECDBFDF91CF911F910F9147
:10071000FF90EF90DF90CF90BF90AF900895EF9251
:10072000FF920F931F93CF93DF93CDB7DEB7299737
:100730000FB6F894DEBF0FBECDBF7B010E94A700AD
:100740008C01809148020F3F9FEF190749F48823DD
:1007500049F16EE171E080EF92E00E94AB0F22C0A0
:10076000882331F064EC71E080EF92E00E94AB0FDF
:10077000CE0101960E940705B801CE0101960E94A4
:100780002F056DEB70E0CE0101960E9427056FE00A
:1007900070E0CE0101960E942B05B701CE010196B3
:1007A0000E94FF0529960FB6F894DEBF0FBECDBF9D
:1007B000DF91CF911F910F91FF90EF900895CF930C
:1007C000DF93109247021092460267EC71E080EFCF
:1007D00092E00E948E0F64E372E080EF92E00E944C
:1007E000AB0F42E050E064E372E081E392E00E94EC
:1007F0001D151092330268ED71E080EF92E00E94C7
:100800008E0F61E372E080EF92E00E94AB0F42E056
:1008100050E066E372E08EE292E00E941D151092B5
:1008200030026FED71E080EF92E00E948E0F6EE279
:1008300072E080EF92E00E94AB0F80914802882323
:1008400031F064E372E080EF92E00E94AB0F81E34D
:1008500092E00E94FF14EC0180369105F1F44CE027
:1008600050E068E372E081E292E00E941D15109270
:100870002D0266EE71E080EF92E00E948E0F61E241
:1008800072E080EF92E00E94AB0F61E272E08EE2D4
:1008900092E0DF91CF910C948F0343E050E068E346
:1008A00072E081E292E00E941D151092250266EE30
:1008B00071E080EF92E00E948E0F61E272E080EFC3
:1008C00092E00E94AB0F43E050E06BE372E08DE1F9
:1008D00092E00E941D15109220026DEE71E080EFF3
:1008E00092E00E948E0F6DE172E080EF92E00E9434
:1008F000AB0FC330D105D9F17CF4C130D10539F14A
:1009000074F5CD2B09F04FC061E272E08EE292E007
:10091000DF91CF910C94D400C136D10581F15CF404
:10092000249709F040C061E272E08EE292E0DF912C
:10093000CF910C94A101C236D10559F1C336D1052E
:1009400091F581E292E0DF91CF910C94950061E204
:1009500072E08EE292E0DF91CF910C940E0161E2A1
:1009600072E08EE292E0DF91CF910C944C0161E253
:1009700072E08EE292E0DF91CF910C94FC014DE1A8
:1009800052E061E272E08EE292E0DF91CF910C944E
:1009900035024DE152E061E272E08EE292E0DF91D9
:1009A000CF910C94CD0264EF71E080EF92E0DF9183
:1009B000CF910C94AB0F8AE192E00C94401180EF40
:1009C00092E00E946E0D1816190604F580EF92E071
:1009D0000E94970D813229F410924702109246022C
:1009E000EECF8E3219F40E94DF03E9CF2091460248
:1009F00030914702A9014F5F5F4F509347024093E8
:100A00004602F901EC5CFD4F8083D9CF0895FC01CB
:100A10008FEF9FEF938382832EE531E0358324832C
:100A20002AE030E03783268321E02087918380838A
:100A30008CE390E090930B0180930A011092DF0207
:100A40001092E0021092E1021092E2020895FC017D
:100A5000758364830895FC01778366830895FC01A0
:100A6000862F6283738361E00C945E0CFC018081AD
:100A700091818F3FFFEF9F0791F01092DF0210925C
:100A8000E0021092E1021092E2021092DE02109255
:100A9000DD0241E050E063ED79E00C94560A0895E0
:100AA000CF93DF93EC0188810E94760A8FEF9FEF4E
:100AB00099838883DF91CF910895BF92CF92DF927F
:100AC000EF92FF920F931F93CF93DF93EC016B0193
:100AD0007A01088119818A819B810196D9F10F3FA2
:100AE0003FEF130731F0CE010E945005BB24B394B1
:100AF00001C0B12C61E08A810E947E0C8C819D81B5
:100B00009C01C29EC001C39E900DD29E900D1124E7
:100B10000E94730B60E08A810E947E0C8C819D8113
:100B20009C01E29EC001E39E900DF29E900D112467
:100B30000E94730BBB2071F019830883CE01DF91F3
:100B4000CF911F910F91FF90EF90DF90CF90BF90CA
:100B50000C943605DF91CF911F910F91FF90EF908C
:100B6000DF90CF90BF900895CF93DF93EC0143E0E7
:100B700050E061E070E00E945D0543E050E061E01C
:100B800070E0CE01DF91CF910C945D05CF93DF93A0
:100B9000EC0141E050E063E070E00E945D0541E05F
:100BA00050E063E070E0CE01DF91CF910C945D05E1
:100BB000CF93DF93EC0143E050E061E070E00E94EE
:100BC0005D0541E050E063E070E0CE01DF91CF9140
:100BD0000C945D05FC012085213019F44FE150E0B3
:100BE00009C0223019F44AE050E004C0233031F447
:100BF00047E450E061E070E00C945D050895CF9209
:100C0000DF92EF92FF920F931F93CF93DF93EC014C
:100C10006B01E12CF12C8E819F81E816F906FCF422
:100C20008601F80181918F01882391F0813361F071
:100C3000863431F08033A9F7CE010E94B405F1CF9C
:100C4000CE010E94D805EDCFCE010E94C605E9CFA6
:100C5000CE010E94EA05FFEFEF1AFF0ADCCFDF9119
:100C6000CF911F910F91FF90EF90DF90CF9008955B
:100C70002F923F924F925F926F927F928F929F92AC
:100C8000AF92BF92CF92DF92EF92FF920F931F939A
:100C9000CF93DF93CDB7DEB760970FB6F894DEBF82
:100CA0000FBECDBF1C0180915302909154026FE1A1
:100CB00070E00E946F148B014B01A12CB12CA0910C
:100CC0000A01B0910B019B010E94E7140E9462137C
:100CD0002AE037ED43E25CE30E94F0130E943613F2
:100CE0006B017C019801A3E0B0E00E94D8149B0145
:100CF000AC012C193D094E095F092D833E834F83BA
:100D0000588726013701460E571E681E791E21E0BE
:100D100030E080E090E0DC01B501A4014C195D09F0
:100D20006E097F0949875A876B877C87B701A601BF
:100D3000480D591D6A1D7B1D4D875E876F87788B17
:100D40002215330508F073C0F901EE0FFF1FED5AAD
:100D5000FD4F0190F081E02D4F01A12CB12CC984F1
:100D6000DA84EB84FC84C814D904EA04FB0428F573
:100D70004D855E856F85788984169506A606B7062B
:100D8000E0F4F901EE0FFF1FEB5AFD4FE080F18018
:100D9000A70160E070E049835A836B837C83CD8038
:100DA000DE80EF80F884C416D506E606F70628F440
:100DB000441555056605770570F14D815E816F819B
:100DC0007885481559056A057B0550F58414950406
:100DD000A604B70428F5F901EE0FFF1FEB5AFD4FEB
:100DE0000190F081E02D4F01A12CB12CC984DA844F
:100DF000EB84FC84C814D904EA04FB0488F44D8510
:100E00005E856F85788984169506A606B70640F438
:100E10000196A11DB11D880F991FAA1FBB1F04C0F9
:100E2000910180E090E0DC012E5F3F4F89CFB695C5
:100E3000A7959795879557E025163104C0F08093C4
:100E4000DF029093E002A093E102B093E2023694B5
:100E500027943092DE022092DD021093DC02009390
:100E6000DB0221E030E03093DA022093D90221E066
:100E7000892B8A2B8B2B09F420E0822F60960FB6EA
:100E8000F894DEBF0FBECDBFDF91CF911F910F91C0
:100E9000FF90EF90DF90CF90BF90AF909F908F909A
:100EA0007F906F905F904F903F902F9008952F927A
:100EB0003F924F925F926F927F928F929F92AF92EA
:100EC000BF92CF92DF92EF92FF920F931F93CF9337
:100ED000DF93CDB7DEB760970FB6F894DEBF0FBED5
:100EE000CDBF1C0180915302909154026AE070E0E2
:100EF0000E946F148B016B01E12CF12CA0910A016F
:100F0000B0910B019B010E94E7140E9462132AE03A
:100F100037ED43E25CE30E94F0130E943613460172
:100F20005701880C991CAA1CBB1CA5019401261B07
:100F3000370B480B590B2D873E874F87588B9B01EA
:100F4000AC01280D391D4A1D5B1D2D833E834F8347
:100F5000588721E030E019821A821B821C824601E8
:100F60005701861A970AA80AB90A4D815E816F81D6
:100F700078854C195D096E097F096A017B0122158C
:100F8000330508F07CC0F901EE0FFF1FED5AFD4F4D
:100F90000190F081E02D2F01612C712C84149504B7
:100FA000A604B70460F54C145D046E047F0438F5A4
:100FB000F901EE0FFF1FEB5AFD4F40815181BA013D
:100FC00080E090E069877A878B879C87DC01CB0182
:100FD0004D855E856F857889481759076A077B07B5
:100FE00070F44D815E816F81788584179507A6071F
:100FF000B70728F469817A818B819C812FC08D8508
:101000009E85AF85B88984159505A605B70578F541
:101010004D815E816F817885441655066606770698
:1010200030F5F901EE0FFF1FEB5AFD4F0190F081F3
:10103000E02D2F01612C712C84149504A604B704B3
:10104000B0F44C145D046E047F0488F469817A81E5
:101050008B819C816F5F7F4F8F4F9F4F660F771FF4
:10106000881F991F69837A838B839C8305C09101B4
:1010700019821A821B821C822E5F3F4F80CF89818A
:101080009A81AB81BC81B695A7959795879577E0B6
:1010900027163104C0F08093DF029093E002A09302
:1010A000E102B093E202369427943092DE0220925D
:1010B000DD021093DC020093DB0222E030E030938B
:1010C000DA022093D90221E0892B8A2B8B2B09F499
:1010D00020E0822F60960FB6F894DEBF0FBECDBF22
:1010E000DF91CF911F910F91FF90EF90DF90CF9004
:1010F000BF90AF909F908F907F906F905F904F9038
:101100003F902F9008952F923F924F925F926F924F
:101110007F928F929F92AF92BF92CF92DF92EF9287
:10112000FF920F931F93CF93DF93CDB7DEB76C97EA
:101130000FB6F894DEBF0FBECDBF8C018091530275
:101140009091540267E470E00E946F141B01A0911B
:101150000A01B0910B019B010E94E7140E946213E7
:101160002AE037ED43E25CE30E94F0130E9436135D
:101170006B017C01C101A0E0B0E052E0880F991F33
:10118000AA1FBB1F5A95D1F74C015D018C189D0811
:10119000AE08BF0889829A82AB82BC82B701A601E1
:1011A000480F591F6A1F7B1F4D835E836F837887AB
:1011B0009101ABE0B0E00E94D8144B015C018C18A7
:1011C0009D08AE08BF0889869A86AB86BC86460114
:1011D0005701860E971EA81EB91E8D869E86AF8665
:1011E000B88AA9E0B0E00E94D8144B015C018C18C9
:1011F0009D08AE08BF08898A9A8AAB8ABC8A4601D4
:101200005701860E971EA81EB91E8D8A9E8AAF8A28
:10121000B88EA6E0B0E00E94D8149B01AC012C1956
:101220003D094E095F09298F3A8F4B8F5C8FC60E9F
:10123000D71EE81EF91E21E030E080E090E0DC01DE
:101240002017310708F070C0F901EE0FFF1FED5AAB
:10125000FD4F408151812A01612C712C49815A81B5
:101260006B817C81441555056605770520F58D80D9
:101270009E80AF80B884481459046A047B04D8F473
:10128000F901EE0FFF1FEB5AFD4F4081518160E0E5
:1012900070E089849A84AB84BC8484169506A60683
:1012A000B70648F48D849E84AF84B88848155905E4
:1012B0006A057B0568F149895A896B897C894415DF
:1012C00055056605770548F58D889E88AF88B88CEA
:1012D000481459046A047B0400F5F901EE0FFF1F5E
:1012E000EB5AFD4F408151812A01612C712C498DAF
:1012F0005A8D6B8D7C8D441555056605770568F410
:101300004C145D046E047F0440F40196A11DB11DD0
:10131000880F991FAA1FBB1F04C0980180E090E0AE
:10132000DC012E5F3F4F8CCFB695A795979587959B
:1013300007301105C0F08093DF029093E002A09384
:10134000E102B093E202169507951093DE02009336
:10135000DD023092DC022092DB0223E030E03093A9
:10136000DA022093D90221E0892B8A2B8B2B09F4F6
:1013700020E0822F6C960FB6F894DEBF0FBECDBF73
:10138000DF91CF911F910F91FF90EF90DF90CF9061
:10139000BF90AF909F908F907F906F905F904F9095
:1013A0003F902F900895CF92DF92EF92FF920F938C
:1013B0001F93CF93DF930E942A0B6B017C018091D6
:1013C0004F02909150028601081B190B10934E0298
:1013D00000934D02093883E11807C0F18091530250
:1013E000909154029C01285C31092017310750F577
:1013F00088539F4F0817190728F580914B02909149
:101400004C02019690934C0280934B02C09149028A
:10141000D0914A022197D0934A02C0934902029781
:1014200089F4CE010E943806811108C0CE010E94C5
:101430005707811103C0CE010E94830810924C020D
:1014400010924B0210924A02109249028091490276
:1014500090914A028334910540F010924A02109212
:10146000490210924C0210924B02E0914902F09115
:101470004A02CF01019690934A0280934902EE0FEF
:10148000FF1FED5AFD4F11830083C0924F02D0928F
:101490005002E0925102F0925202DF91CF911F91DF
:1014A0000F91FF90EF90DF90CF9008958230E8F495
:1014B000E82FF0E0EE0FFF1FED51FD4F71836083C9
:1014C000813041F0809169008C7F842B809369008A
:1014D000E89A089580916900440F551F440F551FE5
:1014E000837F842B80936900E99A0895823068F4A1
:1014F000813011F0E89801C0E998E82FF0E0EE0F94
:10150000FF1FED51FD4F1182108208951F920F921F
:101510000FB60F9211242F933F934F935F936F93C6
:101520007F938F939F93AF93BF93EF93FF9380919C
:10153000E3029091E402892B29F0E091E302F0911B
:10154000E4020995FF91EF91BF91AF919F918F9127
:101550007F916F915F914F913F912F910F900FBEAF
:101560000F901F9018951F920F920FB60F92112493
:101570002F933F934F935F936F937F938F939F939B
:10158000AF93BF93EF93FF938091E5029091E602B2
:10159000892B29F0E091E502F091E6020995FF918F
:1015A000EF91BF91AF919F918F917F916F915F91DB
:1015B0004F913F912F910F900FBE0F901F90189554
:1015C0001F920F920FB60F9211242F933F938F9378
:1015D0009F93AF93BF938091E8029091E902A0910D
:1015E000EA02B091EB023091E70223E0230F2D379E
:1015F00020F40196A11DB11D05C026E8230F029617
:10160000A11DB11D2093E7028093E8029093E902A7
:10161000A093EA02B093EB028091EC029091ED026C
:10162000A091EE02B091EF020196A11DB11D809331
:10163000EC029093ED02A093EE02B093EF02BF9103
:10164000AF919F918F913F912F910F900FBE0F906F
:101650001F9018953FB7F8948091EC029091ED029D
:10166000A091EE02B091EF0226B5A89B05C02F3FD6
:1016700019F00196A11DB11D3FBF6627782F892F54
:101680009A2F620F711D811D911D42E0660F771F19
:10169000881F991F4A95D1F70895CF92DF92EF9254
:1016A000FF92CF93DF936B017C010E942A0BEB0129
:1016B000C114D104E104F10479F00E942A0B6C1BDF
:1016C0007D0B683E7340A0F381E0C81AD108E108A1
:1016D000F108C851DC4FECCFDF91CF91FF90EF9034
:1016E000DF90CF9008950197009739F0880F991FE8
:1016F000880F991F02970197F1F70895789484B5A0
:10170000826084BD84B5816084BD85B5826085BDFD
:1017100085B5816085BDEEE6F0E0808181608083E3
:10172000E1E8F0E0108280818260808380818160C6
:101730008083E0E8F0E0808181608083E1EBF0E08D
:10174000808184608083E0EBF0E080818160808331
:10175000EAE7F0E08081846080838081826080831A
:101760008081816080838081806880831092C10045
:1017700008958E3008F08E50877020910C0190E40F
:10178000299F90011124822B80937C0080917A0004
:10179000806480937A0080917A0086FDFCCF8091EE
:1017A00078002091790090E0922B08951F93CF93B9
:1017B000DF93182FEB0161E00E945E0C209711F47B
:1017C00060E004C0CF3FD10539F461E0812FDF91A3
:1017D000CF911F910C947E0CE12FF0E0E859FF4F60
:1017E000E491E330F9F048F4E130B9F0E230A1F5EA
:1017F00084B5806284BDC8BD34C0E630E9F0E7300E
:1018000019F1E43049F58091800080628093800076
:10181000D0938B00C0938A0024C084B5806884BDB7
:10182000C7BD1FC080918000806880938000D093E6
:101830008900C093880015C08091B00080688093B3
:10184000B000C093B3000DC08091B000806280935F
:10185000B000C093B40005C0C038D1050CF0B5CFBE
:10186000AFCFDF91CF911F910895833081F028F49D
:10187000813099F08230A1F008958630A9F0873048
:10188000B9F08430D1F4809180008F7D03C08091C5
:1018900080008F7780938000089584B58F7702C091
:1018A00084B58F7D84BD08958091B0008F7703C08B
:1018B0008091B0008F7D8093B000089590E0FC018E
:1018C000E458FF4F2491FC01E057FF4FE491EE23D1
:1018D000A1F0F0E0EE0FFF1FE854FF4FA591B49187
:1018E0009FB7611105C0F8948C912095822303C0A5
:1018F000F8948C91822B8C939FBF08950F931F9324
:10190000CF93DF931F92CDB7DEB7282F30E0F901D8
:10191000E859FF4F8491F901E458FF4F1491F90100
:10192000E057FF4F04910023C9F0882321F0698319
:101930000E94350C6981E02FF0E0EE0FFF1FE255A9
:10194000FF4FA591B4919FB7F8948C91611103C09A
:101950001095812301C0812B8C939FBF0F90DF9145
:10196000CF911F910F910895CF93DF93282F30E0EF
:10197000F901E859FF4F8491F901E458FF4FD491E0
:10198000F901E057FF4FC491CC2391F081110E94DF
:10199000350CEC2FF0E0EE0FFF1FEC55FF4FA5913B
:1019A000B4912C912D2381E090E021F480E002C0DD
:1019B00080E090E0DF91CF910895CF92DF92EF9297
:1019C000FF920F931F93CF93DF9390E0FC01E458B5
:1019D000FF4FD491FC01E057FF4FF490611102C01A
:1019E000C0E001C0CD2FA0E8BEE30E94EE1420E8C5
:1019F0003EE340E050E00E9497146F2D70E0660FC8
:101A0000771F6C557F4F80E090E0DC01FB01E59093
:101A1000F490F701F080FD22FC121EC06C017D01E4
:101A20000FEFC01AD00AE00AF00A82179307A40742
:101A3000B50709F445C0D701C601E8CF6C017D01A7
:101A4000FFEFCF1ADF0AEF0AFF0A82179307A407F6
:101A5000B507B1F1D701C601FB01E590F490F7019C
:101A6000F080FD22FC12EACF79018A01E81AF90A16
:101A70000A0B1B0BD801C70120E030E0A901FB01D4
:101A8000E590F490F701F080FD22FC120AC02817BF
:101A900039074A075B07A1F02F5F3F4F4F4F5F4F5A
:101AA000EECFA8E0B2E50E94EE146058714C8F4F63
:101AB0009F4F20E83EE340E050E00E94971403C0AF
:101AC00020E030E0A901CA01B901DF91CF911F9157
:101AD0000F91FF90EF90DF90CF900895FC01248547
:101AE0003585F901E05CFF4F80819181329620813C
:101AF0003181821B930B8F7399270895FC01848594
:101B00009585FC01E05CFF4F408151813296208138
:101B100031814217530741F00190F081E02DE80F29
:101B2000F91F808190E008958FEF9FEF0895FC01E9
:101B300084859585FC01E05CFF4F408151813296A0
:101B4000208131814217530779F0A081B181A80F1C
:101B5000B91F8C91208131812F5F3F4F2F73332725
:101B60003183208390E008958FEF9FEF0895FC016B
:101B700086859785FC01E05CFF4FDC01AE5BBF4FC3
:101B8000408151812D913C91119742175307C1F724
:101B900008951F93CF93DF93FC01162F2685378579
:101BA000E901C05CDF4F88819981019660E470E0B3
:101BB0000E948314D901AE5BBF4F4D915C91119788
:101BC00084179507D1F3A881B981A20FB31F1C9385
:101BD000A685B785A05CBF4F11969C938E93A6896E
:101BE000B7892C9181E090E0058C02C0880F991F85
:101BF0000A94E2F7282B2C9381E090E0DF91CF91BB
:101C00001F91089508951F920F920FB60F921124FD
:101C10002F933F934F938F939F93EF93FF93409115
:101C2000C600809193039091940301968F73992736
:101C300020919503309196038217930759F0E09114
:101C40009303F0919403ED5AFC4F408390939403D7
:101C500080939303FF91EF919F918F914F913F91CB
:101C60002F910F900FBE0F901F90189580EF92E06C
:101C70000E946E0D892B11F00C94020E08951F9294
:101C80000F920FB60F9211242F933F935F936F9390
:101C90007F938F939F93AF93BF93EF93FF93209185
:101CA0004F033091500380915103909152032817B4
:101CB000390731F48091C1008F7D8093C10016C037
:101CC000E0915103F0915203E15FFC4F208180913C
:101CD000510390915203019660E470E00E948314D6
:101CE00090935203809351032093C600FF91EF918C
:101CF000BF91AF919F918F917F916F915F913F9134
:101D00002F910F900FBE0F901F901895CF92DF92DA
:101D1000EF92FF92CF93DF93EC016A017B014115B3
:101D200081EE580761057105F9F0EC89FD8981E0C4
:101D300090E00E8C02C0880F991F0A94E2F780830E
:101D400060E079E08DE390E0A70196010E9497148E
:101D500021503109410951095695479537952795E5
:101D6000211580E1380798F0EC89FD89108260E840
:101D700074E88EE190E0A70196010E94971421502B
:101D80003109410951095695479537952795E889B5
:101D9000F9893083EA89FB892083EE89FF894081B4
:101DA00081E090E09C010A8C02C0220F331F0A944C
:101DB000E2F7422B4083EE89FF8940819C010B8C26
:101DC00002C0220F331F0A94E2F7422B4083EE89B0
:101DD000FF8940819C010C8C02C0220F331F0A94A2
:101DE000E2F7422B4083EE89FF8920810D8C02C0EF
:101DF000880F991F0A94E2F7809582238083DF91F0
:101E0000CF91FF90EF90DF90CF9008951092F30262
:101E10001092F20288EE93E0A0E0B0E08093F4022A
:101E20009093F502A093F602B093F7028DE092E052
:101E30009093F1028093F00283E593E09093FD028A
:101E40008093FC028FE093E09093FF028093FE0268
:101E500085EC90E0909301038093000384EC90E084
:101E6000909303038093020380EC90E0909305032A
:101E70008093040381EC90E0909307038093060322
:101E800086EC90E0909309038093080384E08093AC
:101E90000A0383E080930B0387E080930C0385E0C3
:101EA00080930D0381E080930E030895CF92DF921B
:101EB000EF92FF920F931F93CF93DF936C017A0100
:101EC000EB01E60EF71E00E010E0CE15DF0561F035
:101ED0006991D601ED91FC910190F081E02DC60150
:101EE0000995080F191FF1CFC801DF91CF911F91FC
:101EF0000F91FF90EF90DF90CF900895DB010D9050
:101F00000020E9F7AD0141505109461B570BDC0198
:101F1000ED91FC910280F381E02D09940C947E0FE9
:101F2000DC01ED91FC910190F081E02D09940F937B
:101F30001F93CF93DF93EC016DE00E94900F8C0113
:101F40006AE0CE010E94900F800F911FDF91CF9128
:101F50001F910F9108950F931F93CF93DF93EC017F
:101F60000E947E0F8C01CE010E94970F800F911F5F
:101F7000DF91CF911F910F9108958F929F92AF9211
:101F8000BF92CF92DF92EF92FF920F931F93CF9366
:101F9000DF93CDB7DEB7A1970FB6F894DEBF0FBEC3
:101FA000CDBF7C01C42EE52FCB01D22E19A221E09A
:101FB0002D1510F02AE0D22E8E010F5D1F4F8D2CB3
:101FC000912CA12CB12C6C2D7E2FA50194010E9487
:101FD00097148C2DD29E80191124015011098A303A
:101FE00010F4805D01C0895CF80180832115310502
:101FF0004105510521F0C22EE32FCA01E4CFB801FB
:10200000C7010E947E0FA1960FB6F894DEBF0FBEE7
:10201000CDBFDF91CF911F910F91FF90EF90DF9097
:10202000CF90BF90AF909F908F900895CF92DF9206
:10203000EF92FF920F931F93CF93DF93EC016A010E
:102040007B012115310579F4E881F9810190F08156
:10205000E02D642FDF91CF911F910F91FF90EF90B2
:10206000DF90CF9009942A303105E9F477FF1AC048
:102070006DE20E94900F8C0144275527BA014C193C
:102080005D096E097F092AE0CE010E94BD0F800F15
:10209000911FDF91CF911F910F91FF90EF90DF90F3
:1020A000CF9008952AE0B701A601CE01DF91CF912C
:1020B0001F910F91FF90EF90DF90CF900C94BD0F88
:1020C0000F931F93CF93DF93EC019A01AB01662727
:1020D00057FD6095762F0E9416108C01CE010E944C
:1020E000970F800F911FDF91CF911F910F9108954E
:1020F0000E947E0B0E948D00C6E3DEE00E94DF049A
:102100002097E1F30E94360EF9CF1F920F920FB67F
:102110000F9211242F933F934F935F936F937F936D
:102120008F939F93AF93BF93EF93FF938091980307
:1021300087FF05C010928500109284001AC020917C
:102140009803332727FD30958091970390E0281757
:1021500039077CF480919803992787FD9095FC01BD
:10216000EE0FFF1FE80FF91FE756FC4F808186FD39
:1021700015C0809198038F5F8093980320919803F6
:10218000332727FD30958091970390E02817390772
:10219000BCF4809198038C3054F112C08091980364
:1021A000992787FD9095FC01EE0FFF1FE80FF91F9F
:1021B000E756FC4F808160E08F730E947E0CD9CF80
:1021C000809184009091850084349C4918F480E4C7
:1021D0009CE905C0809184009091850004969093BD
:1021E0008900809388008FEF8093980338C0809196
:1021F00084009091850020919803332727FD309526
:10220000F901EE0FFF1FE20FF31FE756FC4F21818C
:102210003281820F931F9093890080938800809170
:102220009803992787FD9095FC01EE0FFF1FE80F9B
:10223000F91FE756FC4F808186FF11C080919803FB
:10224000992787FD9095FC01EE0FFF1FE80FF91FFE
:10225000E756FC4F808161E08F730E947E0CFF91F6
:10226000EF91BF91AF919F918F917F916F915F910E
:102270004F913F912F910F900FBE0F901F90189587
:10228000209197032C30A0F431E0320F3093970364
:10229000FC012083822F90E0FC01EE0FFF1FE80F6E
:1022A000F91FE756FC4F88EB9BE0928381830895EA
:1022B0002FEFFC0120830895DF92EF92FF920F939E
:1022C0001F93CF93DF93EC01D62E7A018901888189
:1022D0008C3008F066C061E08D2D0E945E0C888114
:1022E000A82FB0E0FD01EE0FFF1FEA0FFB1FE7561E
:1022F000FC4F2D2D2F739081907C922B908360E268
:1023000072E06E197F0977FF02C06D5F7F4F759590
:10231000679575956795698340E659E0401B510BB9
:1023200057FF02C04D5F5F4F5595479555954795AF
:102330004A832CE0622F0E946314289FB00111246D
:1023400020E030E0A901460F571FFA01EE0FFF1FF2
:10235000E40FF51FE756FC4F908196FD16C02F5FE6
:102360003F4F2C30310571F781110FC01092800062
:1023700082E0809381001092850010928400B19ACF
:1023800080916F00826080936F00888190E0FC01F3
:10239000EE0FFF1FE80FF91FE756FC4F80818064A6
:1023A00080838881DF91CF911F910F91FF90EF90F3
:1023B000DF90089520E639E040E252E00C945C1191
:1023C000FC01808190E0FC01EE0FFF1FE80FF91F78
:1023D000E756FC4F80818F7B80830895FC018081CC
:1023E0008C3070F5918128E830E0291B310997FD88
:1023F0003395220F331F220F331F621773077CF0B0
:10240000928128E532E0291B310997FD3395220F8F
:10241000331F220F331F621773070CF49B014FB752
:10242000F89490E0FC01EE0FFF1FE80FF91FE7564C
:10243000FC4F22503109220F331F328321834FBFBB
:1024400008954F925F926F927F92AF92BF92CF9218
:10245000DF92EF92FF920F931F93CF93DF93EC01E4
:10246000603282E078070CF040C077FD06C0653B23
:1024700071052CF064EB70E002C060E070E08981CF
:1024800028E830E0281B310987FD3395220F331FE0
:10249000220F331F5901CC24B7FCC094DC2C8827B1
:1024A00077FD8095982F2A8148E552E0421B51091B
:1024B00027FD5395440F551F440F551F2A016624CD
:1024C00057FC6094762C7F926F925F924F9214EB40
:1024D000E12EF12C00E010E020E030E0A9010E94A4
:1024E000EF120F900F900F900F90CE01DF91CF91D0
:1024F0001F910F91FF90EF90DF90CF90BF90AF9022
:102500007F906F905F904F900C94EE11FC01808152
:102510008F3FB1F090E0FC01EE0FFF1FE80FF91FB5
:10252000E756FC4F8181928143E0880F991F4A95BD
:10253000E1F754E0969587955A95E1F7029608954C
:1025400080E090E00895AF92BF92CF92DF92EF9239
:10255000FF920F931F93CF93DF93EC010E9486129B
:102560002A8148E552E0421B510927FD5395440F4B
:10257000551F440F551F7A010027F7FC0095102FB7
:10258000498128E830E0241B310947FD3395220FAB
:10259000331F220F331F442737FD4095542F0196D8
:1025A000BC01882777FD8095982F1F921F921F925C
:1025B000E4EBEF93A12CB12C65010E94EF120F9078
:1025C0000F900F900F90CB01DF91CF911F910F9142
:1025D000FF90EF90DF90CF90BF90AF9008954F9213
:1025E0005F926F927F92AF92BF92CF92DF92EF9203
:1025F000FF920F931F93CF93DF93CDB7DEB72901DF
:102600003A01621B730B840B950B29893A894B891C
:102610005C892A193B094C095D09298B3A8B4B8B44
:102620005C8B9B01AC0169897A898B899C890E94AA
:102630005314E418F50806091709A80197010E9428
:10264000B9142A0D3B1D4C1D5D1DCA01B901DF9156
:10265000CF911F910F91FF90EF90DF90CF90BF909F
:10266000AF907F906F905F904F90089598D088F0D2
:102670009F5790F0B92F9927B751A0F0D1F0660F6E
:10268000771F881F991F1AF0BA95C9F712C0B13089
:1026900081F09FD0B1E008959CC0672F782F8827E4
:1026A000B85F39F0B93FCCF3869577956795B395C8
:1026B000D9F73EF490958095709561957F4F8F4F37
:1026C0009F4F0895E89409C097FB3EF4909580953C
:1026D000709561957F4F8F4F9F4F9923A9F0F92FE8
:1026E00096E9BB279395F695879577956795B79566
:1026F000F111F8CFFAF4BB0F11F460FF1BC06F5F4C
:102700007F4F8F4F9F4F16C0882311F096E911C05D
:10271000772321F09EE8872F762F05C0662371F07E
:1027200096E8862F70E060E02AF09A95660F771F92
:10273000881FDAF7880F9695879597F9089597F986
:102740009F6780E870E060E008959FEF80EC089557
:1027500000240A9416161706180609060895002480
:102760000A9412161306140605060895092E0394FA
:10277000000C11F4882352F0BB0F40F4BF2B11F46E
:1027800060FF04C06F5F7F4F8F4F9F4F089557FDCD
:102790009058440F551F59F05F3F71F04795880FCF
:1027A00097FB991F61F09F3F79F087950895121666
:1027B00013061406551FF2CF4695F1DF08C0161612
:1027C00017061806991FF1CF8695710561050894C3
:1027D0000895E894BB2766277727CB0197F90895DA
:1027E0000BD0C4CFB5DF28F0BADF18F0952309F07D
:1027F000A6CFABCF1124EECFCADFA0F3959FD1F3C4
:10280000950F50E0551F629FF001729FBB27F00D9E
:10281000B11D639FAA27F00DB11DAA1F649F6627F3
:10282000B00DA11D661F829F2227B00DA11D621F42
:10283000739FB00DA11D621F839FA00D611D221FFC
:10284000749F3327A00D611D231F849F600D211DE0
:10285000822F762F6A2F11249F5750408AF0E1F083
:1028600088234AF0EE0FFF1FBB1F661F771F881FCC
:1028700091505040A9F79E3F510570F060CFAACF0C
:102880005F3FECF3983EDCF3869577956795B795B7
:10289000F795E7959F5FC1F7FE2B880F911D9695E1
:1028A000879597F90895DB018F939F930E94EE140B
:1028B000BF91AF91A29F800D911DA39F900DB29FDC
:1028C000900D11240895991B79E004C0991F961763
:1028D00008F0961B881F7A95C9F780950895AA1B62
:1028E000BB1B51E107C0AA1FBB1FA617B70710F0FB
:1028F000A61BB70B881F991F5A95A9F7809590952D
:10290000BC01CD01089597FB072E16F4009407D063
:1029100077FD09D00E946F1407FC05D03EF4909516
:1029200081959F4F0895709561957F4F0895A1E21D
:102930001A2EAA1BBB1BFD010DC0AA1FBB1FEE1F39
:10294000FF1FA217B307E407F50720F0A21BB30B84
:10295000E40BF50B661F771F881F991F1A9469F700
:1029600060957095809590959B01AC01BD01CF015C
:102970000895052E97FB1EF400940E94D01457FD75
:1029800007D00E94971407FC03D04EF40C94D01487
:1029900050954095309521953F4F4F4F5F4F08958B
:1029A00090958095709561957F4F8F4F9F4F0895BB
:1029B000A29FB001B39FC001A39F700D811D112480
:1029C000911DB29F700D811D1124911D08950E94CB
:1029D000D814B7FF0895821B930B08950E94D81452
:1029E000A59F900DB49F900DA49F800D911D112463
:1029F0000895EE0FFF1F0590F491E02D0994FC015E
:102A000088279927E89421912032E9F3293010F0A2
:102A10002E30C8F32B3241F02D3239F4689404C0C3
:102A20000E942C15820F911D219120532A30C0F352
:102A30001EF4909581959F4F0895FB01DC01415054
:102A4000504048F001900D920020C9F701C01D923E
:102A500041505040E0F708957AE0979F902D879F6E
:102A6000802D910D11240895AEE0B0E0EAE3F5E188
:102A70000C94DC170D891E8986E08C831A830983E8
:102A80008FEF9FE79E838D83AE01475E5F4F6F8917
:102A9000788DCE0101960E945615EF81F885E00FE2
:102AA000F11F10822E96E4E00C94F817ACE0B0E031
:102AB000ECE5F5E10C94CE177C016B018A01FC0179
:102AC00017821682838181FFBDC1CE0101964C0120
:102AD000F7019381F60193FD859193FF81916F0139
:102AE000882309F4ABC1853239F493FD859193FFB6
:102AF00081916F01853229F4B70190E00E943E1761
:102B0000E7CF512C312C20E02032A0F48B3269F039
:102B100030F4803259F0833269F420612CC08D3258
:102B200039F0803339F4216026C02260246023C04C
:102B3000286021C027FD27C030ED380F3A3078F4E7
:102B400026FF06C0FAE05F9E300D1124532E13C0FD
:102B50008AE0389E300D1124332E20620CC08E3254
:102B600021F426FD6BC1206406C08C3611F4206868
:102B700002C0883641F4F60193FD859193FF81915F
:102B80006F018111C1CF982F9F7D9554933028F408
:102B90000C5F1F4FFFE3F9830DC0833631F083379D
:102BA00071F0833509F05BC022C0F8018081898310
:102BB0000E5F1F4F44244394512C540115C038011B
:102BC000F2E06F0E711CF801A080B18026FF03C0F7
:102BD000652D70E002C06FEF7FEFC5012C870E946A
:102BE00033172C0183012C852F77222E17C0380133
:102BF000F2E06F0E711CF801A080B18026FF03C0C7
:102C0000652D70E002C06FEF7FEFC5012C870E9439
:102C100028172C012C852068222E830123FC1BC041
:102C2000832D90E048165906B0F4B70180E290E099
:102C30000E943E173A94F4CFF50127FC859127FEB8
:102C400081915F01B70190E00E943E1731103A94E4
:102C5000F1E04F1A51084114510471F7E5C0843670
:102C600011F0893639F5F80127FF07C060817181BD
:102C7000828193810C5F1F4F08C06081718188271A
:102C800077FD8095982F0E5F1F4F2F76B22E97FFFE
:102C900009C090958095709561957F4F8F4F9F4F9C
:102CA0002068B22E2AE030E0A4010E947017A82EFE
:102CB000A81844C0853729F42F7EB22E2AE030E0D0
:102CC00025C0F22FF97FBF2E8F36C1F018F488355A
:102CD00079F0B4C0803719F0883721F0AFC02F2FBA
:102CE0002061B22EB4FE0DC08B2D8460B82E09C0B9
:102CF00024FF0AC09F2F9660B92E06C028E030E05E
:102D000005C020E130E002C020E132E0F801B7FE6A
:102D100007C060817181828193810C5F1F4F06C063
:102D20006081718180E090E00E5F1F4FA4010E94DE
:102D30007017A82EA818FB2DFF77BF2EB6FE0BC06C
:102D40002B2D2E7FA51450F4B4FE0AC0B2FC08C08F
:102D50002B2D2E7E05C07A2C2B2D03C07A2C01C082
:102D6000752C24FF0DC0FE01EA0DF11D808180331A
:102D700011F4297E09C022FF06C07394739404C025
:102D8000822F867809F0739423FD13C020FF06C0BC
:102D90005A2C731418F4530C5718732C731468F4CA
:102DA000B70180E290E02C870E943E1773942C8537
:102DB000F5CF731410F4371801C0312C24FF12C062
:102DC000B70180E390E02C870E943E172C8522FFFC
:102DD00017C021FF03C088E590E002C088E790E0BB
:102DE000B7010CC0822F867859F021FD02C080E225
:102DF00001C08BE227FD8DE2B70190E00E943E17F3
:102E0000A51438F4B70180E390E00E943E175A946D
:102E1000F7CFAA94F401EA0DF11D8081B70190E08B
:102E20000E943E17A110F5CF332009F451CEB7010F
:102E300080E290E00E943E173A94F6CFF701868137
:102E4000978102C08FEF9FEF2C96E2E10C94EA1776
:102E5000FC010590615070400110D8F78095909565
:102E60008E0F9F1F0895FC0161507040019001106A
:102E7000D8F7809590958E0F9F1F08950F931F93FD
:102E8000CF93DF93182F092FEB018B8181FD03C0B6
:102E90008FEF9FEF20C082FF10C04E815F812C8199
:102EA0003D81421753077CF4E881F9819F012F5F30
:102EB0003F4F39832883108306C0E885F985812F29
:102EC0000995892B29F72E813F812F5F3F4F3F8343
:102ED0002E83812F902FDF91CF911F910F91089515
:102EE000FA01AA27283051F1203181F1E8946F933B
:102EF0006E7F6E5F7F4F8F4F9F4FAF4FB1E03ED0E1
:102F0000B4E03CD0670F781F891F9A1FA11D680F7E
:102F1000791F8A1F911DA11D6A0F711D811D911DB1
:102F2000A11D20D009F468943F912AE0269F112426
:102F30003019305D3193DEF6CF010895462F47708A
:102F4000405D4193B3E00FD0C9F7F6CF462F4F70E5
:102F5000405D4A3318F0495D31FD4052419302D043
:102F6000A9F7EACFB4E0A6959795879577956795E9
:102F7000BA95C9F700976105710508959B01AC01E9
:102F80000A2E06945795479537952795BA95C9F710
:102F9000620F731F841F951FA01D08952F923F92EB
:102FA0004F925F926F927F928F929F92AF92BF9259
:102FB000CF92DF92EF92FF920F931F93CF93DF9305
:102FC000CDB7DEB7CA1BDB0B0FB6F894DEBF0FBE62
:102FD000CDBF09942A88398848885F846E847D84AF
:102FE0008C849B84AA84B984C884DF80EE80FD80B1
:102FF0000C811B81AA81B981CE0FD11D0FB6F89427
:0E300000DEBF0FBECDBFED010895F894FFCFE7
:10300E000000BD032000010000003C0001676F6F4F
:10301E00646279650068656C6C6F00736D00626147
:10302E006470696E00647700647200253032643A11
:10303E003A253032640061720025733A3A253033F6
:10304E006400617700737300676F74207369676E35
:10305E00616C0070696E6720666972656400257325
:10306E003A3A726561643A3A2530386C7500736984
:10307E00676E616C3A20736572766F0025733A3A0B
:10308E0064657461636865640025733A3A617474AB
:10309E0061636865640077726974696E6720746F26
:1030AE0020736572766F0072656164696E67207356
:1030BE006572766F0025733A3A726561643A3A2505
:1030CE00303364005243006D6573736167654275FA
:1030DE0066666572203D2000636D64203D200070A1
:1030EE00696E203D200076616C203D200061757870
:1030FE00203D2000496E76616C696420434D442169
:10310E002121000E0F1011121300000000C90D56E0
:0A311E000F6E0D970D7E0DB70D002A
:00000001FF
